{
  "_format": "hh-sol-artifact-1",
  "contractName": "EC",
  "sourceName": "contracts/EC.sol",
  "abi": [
    {
      "inputs": [
        {
          "internalType": "uint256",
          "name": "x0",
          "type": "uint256"
        },
        {
          "internalType": "uint256",
          "name": "y0",
          "type": "uint256"
        },
        {
          "internalType": "uint256",
          "name": "x1",
          "type": "uint256"
        },
        {
          "internalType": "uint256",
          "name": "y1",
          "type": "uint256"
        }
      ],
      "name": "add",
      "outputs": [
        {
          "internalType": "uint256",
          "name": "",
          "type": "uint256"
        },
        {
          "internalType": "uint256",
          "name": "",
          "type": "uint256"
        }
      ],
      "stateMutability": "pure",
      "type": "function"
    },
    {
      "inputs": [
        {
          "internalType": "uint256",
          "name": "x1",
          "type": "uint256"
        },
        {
          "internalType": "uint256",
          "name": "y1",
          "type": "uint256"
        },
        {
          "internalType": "uint256",
          "name": "x2",
          "type": "uint256"
        },
        {
          "internalType": "uint256",
          "name": "y2",
          "type": "uint256"
        }
      ],
      "name": "addAndReturnProjectivePoint",
      "outputs": [
        {
          "internalType": "uint256[3]",
          "name": "P",
          "type": "uint256[3]"
        }
      ],
      "stateMutability": "pure",
      "type": "function"
    },
    {
      "inputs": [
        {
          "internalType": "uint256",
          "name": "x0",
          "type": "uint256"
        },
        {
          "internalType": "uint256",
          "name": "y0",
          "type": "uint256"
        },
        {
          "internalType": "uint256",
          "name": "z0",
          "type": "uint256"
        },
        {
          "internalType": "uint256",
          "name": "x1",
          "type": "uint256"
        },
        {
          "internalType": "uint256",
          "name": "y1",
          "type": "uint256"
        },
        {
          "internalType": "uint256",
          "name": "z1",
          "type": "uint256"
        }
      ],
      "name": "addProj",
      "outputs": [
        {
          "internalType": "uint256",
          "name": "x2",
          "type": "uint256"
        },
        {
          "internalType": "uint256",
          "name": "y2",
          "type": "uint256"
        },
        {
          "internalType": "uint256",
          "name": "z2",
          "type": "uint256"
        }
      ],
      "stateMutability": "pure",
      "type": "function"
    },
    {
      "inputs": [
        {
          "internalType": "uint256[]",
          "name": "data",
          "type": "uint256[]"
        },
        {
          "internalType": "uint256",
          "name": "inBits",
          "type": "uint256"
        },
        {
          "internalType": "uint256",
          "name": "outBits",
          "type": "uint256"
        }
      ],
      "name": "convert",
      "outputs": [
        {
          "internalType": "uint256[]",
          "name": "",
          "type": "uint256[]"
        }
      ],
      "stateMutability": "view",
      "type": "function"
    },
    {
      "inputs": [
        {
          "internalType": "bytes",
          "name": "prefix",
          "type": "bytes"
        },
        {
          "internalType": "uint256[]",
          "name": "hrp",
          "type": "uint256[]"
        },
        {
          "internalType": "uint256[]",
          "name": "data",
          "type": "uint256[]"
        }
      ],
      "name": "encode",
      "outputs": [
        {
          "internalType": "string",
          "name": "",
          "type": "string"
        }
      ],
      "stateMutability": "view",
      "type": "function"
    },
    {
      "inputs": [
        {
          "internalType": "uint256",
          "name": "x",
          "type": "uint256"
        },
        {
          "internalType": "uint256",
          "name": "y",
          "type": "uint256"
        }
      ],
      "name": "isOnCurve",
      "outputs": [
        {
          "internalType": "bool",
          "name": "",
          "type": "bool"
        }
      ],
      "stateMutability": "pure",
      "type": "function"
    },
    {
      "inputs": [
        {
          "internalType": "uint256",
          "name": "x0",
          "type": "uint256"
        },
        {
          "internalType": "uint256",
          "name": "y0",
          "type": "uint256"
        }
      ],
      "name": "isZeroCurve",
      "outputs": [
        {
          "internalType": "bool",
          "name": "isZero",
          "type": "bool"
        }
      ],
      "stateMutability": "pure",
      "type": "function"
    },
    {
      "inputs": [
        {
          "internalType": "uint256",
          "name": "scalar",
          "type": "uint256"
        }
      ],
      "name": "multipleGeneratorByScalar",
      "outputs": [
        {
          "internalType": "uint256",
          "name": "",
          "type": "uint256"
        },
        {
          "internalType": "uint256",
          "name": "",
          "type": "uint256"
        }
      ],
      "stateMutability": "pure",
      "type": "function"
    },
    {
      "inputs": [
        {
          "internalType": "uint256",
          "name": "x0",
          "type": "uint256"
        },
        {
          "internalType": "uint256",
          "name": "y0",
          "type": "uint256"
        },
        {
          "internalType": "uint256",
          "name": "exp",
          "type": "uint256"
        }
      ],
      "name": "multiplyPowerBase2",
      "outputs": [
        {
          "internalType": "uint256",
          "name": "",
          "type": "uint256"
        },
        {
          "internalType": "uint256",
          "name": "",
          "type": "uint256"
        }
      ],
      "stateMutability": "pure",
      "type": "function"
    },
    {
      "inputs": [
        {
          "internalType": "uint256",
          "name": "x0",
          "type": "uint256"
        },
        {
          "internalType": "uint256",
          "name": "y0",
          "type": "uint256"
        },
        {
          "internalType": "uint256",
          "name": "scalar",
          "type": "uint256"
        }
      ],
      "name": "multiplyScalar",
      "outputs": [
        {
          "internalType": "uint256",
          "name": "x1",
          "type": "uint256"
        },
        {
          "internalType": "uint256",
          "name": "y1",
          "type": "uint256"
        }
      ],
      "stateMutability": "pure",
      "type": "function"
    },
    {
      "inputs": [
        {
          "internalType": "uint256[]",
          "name": "hrp",
          "type": "uint256[]"
        }
      ],
      "name": "prefixCheck",
      "outputs": [
        {
          "internalType": "uint256",
          "name": "",
          "type": "uint256"
        }
      ],
      "stateMutability": "view",
      "type": "function"
    },
    {
      "inputs": [
        {
          "internalType": "string",
          "name": "xchain",
          "type": "string"
        },
        {
          "internalType": "string",
          "name": "prefix",
          "type": "string"
        },
        {
          "internalType": "uint256[]",
          "name": "hrp",
          "type": "uint256[]"
        },
        {
          "internalType": "bytes",
          "name": "pubk",
          "type": "bytes"
        },
        {
          "internalType": "bytes32",
          "name": "message",
          "type": "bytes32"
        },
        {
          "internalType": "uint256[2]",
          "name": "rs",
          "type": "uint256[2]"
        },
        {
          "internalType": "uint256[2]",
          "name": "Q",
          "type": "uint256[2]"
        },
        {
          "internalType": "string",
          "name": "mg",
          "type": "string"
        }
      ],
      "name": "recoverAddress",
      "outputs": [
        {
          "internalType": "string",
          "name": "",
          "type": "string"
        }
      ],
      "stateMutability": "view",
      "type": "function"
    },
    {
      "inputs": [
        {
          "internalType": "uint256",
          "name": "x0",
          "type": "uint256"
        },
        {
          "internalType": "uint256",
          "name": "y0",
          "type": "uint256"
        },
        {
          "internalType": "uint256",
          "name": "z0",
          "type": "uint256"
        }
      ],
      "name": "toAffinePoint",
      "outputs": [
        {
          "internalType": "uint256",
          "name": "x1",
          "type": "uint256"
        },
        {
          "internalType": "uint256",
          "name": "y1",
          "type": "uint256"
        }
      ],
      "stateMutability": "pure",
      "type": "function"
    },
    {
      "inputs": [
        {
          "internalType": "uint256",
          "name": "x0",
          "type": "uint256"
        },
        {
          "internalType": "uint256",
          "name": "y0",
          "type": "uint256"
        }
      ],
      "name": "toProjectivePoint",
      "outputs": [
        {
          "internalType": "uint256[3]",
          "name": "P",
          "type": "uint256[3]"
        }
      ],
      "stateMutability": "pure",
      "type": "function"
    },
    {
      "inputs": [
        {
          "internalType": "uint256",
          "name": "x0",
          "type": "uint256"
        },
        {
          "internalType": "uint256",
          "name": "y0",
          "type": "uint256"
        }
      ],
      "name": "twice",
      "outputs": [
        {
          "internalType": "uint256",
          "name": "",
          "type": "uint256"
        },
        {
          "internalType": "uint256",
          "name": "",
          "type": "uint256"
        }
      ],
      "stateMutability": "pure",
      "type": "function"
    },
    {
      "inputs": [
        {
          "internalType": "uint256",
          "name": "x0",
          "type": "uint256"
        },
        {
          "internalType": "uint256",
          "name": "y0",
          "type": "uint256"
        },
        {
          "internalType": "uint256",
          "name": "z0",
          "type": "uint256"
        }
      ],
      "name": "twiceProj",
      "outputs": [
        {
          "internalType": "uint256",
          "name": "x1",
          "type": "uint256"
        },
        {
          "internalType": "uint256",
          "name": "y1",
          "type": "uint256"
        },
        {
          "internalType": "uint256",
          "name": "z1",
          "type": "uint256"
        }
      ],
      "stateMutability": "pure",
      "type": "function"
    },
    {
      "inputs": [
        {
          "internalType": "bytes32",
          "name": "message",
          "type": "bytes32"
        },
        {
          "internalType": "uint256[2]",
          "name": "rs",
          "type": "uint256[2]"
        },
        {
          "internalType": "uint256[2]",
          "name": "Q",
          "type": "uint256[2]"
        }
      ],
      "name": "validateSignature",
      "outputs": [
        {
          "internalType": "bool",
          "name": "",
          "type": "bool"
        }
      ],
      "stateMutability": "view",
      "type": "function"
    },
    {
      "inputs": [],
      "name": "zeroAffine",
      "outputs": [
        {
          "internalType": "uint256",
          "name": "x",
          "type": "uint256"
        },
        {
          "internalType": "uint256",
          "name": "y",
          "type": "uint256"
        }
      ],
      "stateMutability": "pure",
      "type": "function"
    },
    {
      "inputs": [],
      "name": "zeroProj",
      "outputs": [
        {
          "internalType": "uint256",
          "name": "x",
          "type": "uint256"
        },
        {
          "internalType": "uint256",
          "name": "y",
          "type": "uint256"
        },
        {
          "internalType": "uint256",
          "name": "z",
          "type": "uint256"
        }
      ],
      "stateMutability": "pure",
      "type": "function"
    }
  ],
  "bytecode": "0x608060405234801561001057600080fd5b50612e4d806100206000396000f3fe608060405234801561001057600080fd5b50600436106101215760003560e01c8063713eca28116100ad578063c80edca411610071578063c80edca414610775578063e022d77c146107d9578063ed9aa42814610840578063ef0eec3414610a9c578063f214aba014610eb657610121565b8063713eca28146105a957806372fb4a14146106315780637ec8da8d1461068e57806384dfba4614610702578063c30cfa2d1461072757610121565b806314c67060116100f457806314c67060146102d657806321ed510e1461030257806324edbee614610423578063322b24aa146104ef578063675ca0431461054c57610121565b806304e960d71461012657806309d3ef31146101ec5780630afb4ddc1461023f5780630b0dbcfa14610288575b600080fd5b6101d4600480360360a081101561013c57600080fd5b810190808035906020019092919080604001906002806020026040519081016040528092919082600260200280828437600081840152601f19601f820116905080830192505050505050919291929080604001906002806020026040519081016040528092919082600260200280828437600081840152601f19601f8201169050808301925050505050509192919290505050610f38565b60405180821515815260200191505060405180910390f35b6102226004803603604081101561020257600080fd5b810190808035906020019092919080359060200190929190505050611291565b604051808381526020018281526020019250505060405180910390f35b61026b6004803603602081101561025557600080fd5b81019080803590602001909291905050506112c5565b604051808381526020018281526020019250505060405180910390f35b6102be6004803603604081101561029e57600080fd5b81019080803590602001909291908035906020019092919050505061131c565b60405180821515815260200191505060405180910390f35b6102de6114be565b60405180848152602001838152602001828152602001935050505060405180910390f35b6103cc6004803603606081101561031857600080fd5b810190808035906020019064010000000081111561033557600080fd5b82018360208201111561034757600080fd5b8035906020019184602083028401116401000000008311171561036957600080fd5b919080806020026020016040519081016040528093929190818152602001838360200280828437600081840152601f19601f82011690508083019250505050505050919291929080359060200190929190803590602001909291905050506114d3565b6040518080602001828103825283818151815260200191508051906020019060200280838360005b8381101561040f5780820151818401526020810190506103f4565b505050509050019250505060405180910390f35b6104d96004803603602081101561043957600080fd5b810190808035906020019064010000000081111561045657600080fd5b82018360208201111561046857600080fd5b8035906020019184602083028401116401000000008311171561048a57600080fd5b919080806020026020016040519081016040528093929190818152602001838360200280828437600081840152601f19601f8201169050808301925050505050505091929192905050506115ae565b6040518082815260200191505060405180910390f35b61052f6004803603606081101561050557600080fd5b8101908080359060200190929190803590602001909291908035906020019092919050505061164b565b604051808381526020018281526020019250505060405180910390f35b61058c6004803603606081101561056257600080fd5b810190808035906020019092919080359060200190929190803590602001909291905050506116a8565b604051808381526020018281526020019250505060405180910390f35b6105f3600480360360808110156105bf57600080fd5b810190808035906020019092919080359060200190929190803590602001909291908035906020019092919050505061173c565b6040518082600360200280838360005b8381101561061e578082015181840152602081019050610603565b5050505090500191505060405180910390f35b6106716004803603606081101561064757600080fd5b81019080803590602001909291908035906020019092919080359060200190929190505050611771565b604051808381526020018281526020019250505060405180910390f35b6106c4600480360360408110156106a457600080fd5b810190808035906020019092919080359060200190929190505050611873565b6040518082600360200280838360005b838110156106ef5780820151818401526020810190506106d4565b5050505090500191505060405180910390f35b61070a611968565b604051808381526020018281526020019250505060405180910390f35b61075d6004803603604081101561073d57600080fd5b810190808035906020019092919080359060200190929190505050611976565b60405180821515815260200191505060405180910390f35b6107b56004803603606081101561078b57600080fd5b810190808035906020019092919080359060200190929190803590602001909291905050506119a0565b60405180848152602001838152602001828152602001935050505060405180910390f35b610823600480360360808110156107ef57600080fd5b8101908080359060200190929190803590602001909291908035906020019092919080359060200190929190505050611e29565b604051808381526020018281526020019250505060405180910390f35b610a216004803603606081101561085657600080fd5b810190808035906020019064010000000081111561087357600080fd5b82018360208201111561088557600080fd5b803590602001918460018302840111640100000000831117156108a757600080fd5b91908080601f016020809104026020016040519081016040528093929190818152602001838380828437600081840152601f19601f8201169050808301925050505050505091929192908035906020019064010000000081111561090a57600080fd5b82018360208201111561091c57600080fd5b8035906020019184602083028401116401000000008311171561093e57600080fd5b919080806020026020016040519081016040528093929190818152602001838360200280828437600081840152601f19601f8201169050808301925050505050505091929192908035906020019064010000000081111561099e57600080fd5b8201836020820111156109b057600080fd5b803590602001918460208302840111640100000000831117156109d257600080fd5b919080806020026020016040519081016040528093929190818152602001838360200280828437600081840152601f19601f820116905080830192505050505050509192919290505050611e63565b6040518080602001828103825283818151815260200191508051906020019080838360005b83811015610a61578082015181840152602081019050610a46565b50505050905090810190601f168015610a8e5780820380516001836020036101000a031916815260200191505b509250505060405180910390f35b610e3b6004803603610140811015610ab357600080fd5b8101908080359060200190640100000000811115610ad057600080fd5b820183602082011115610ae257600080fd5b80359060200191846001830284011164010000000083111715610b0457600080fd5b91908080601f016020809104026020016040519081016040528093929190818152602001838380828437600081840152601f19601f82011690508083019250505050505050919291929080359060200190640100000000811115610b6757600080fd5b820183602082011115610b7957600080fd5b80359060200191846001830284011164010000000083111715610b9b57600080fd5b91908080601f016020809104026020016040519081016040528093929190818152602001838380828437600081840152601f19601f82011690508083019250505050505050919291929080359060200190640100000000811115610bfe57600080fd5b820183602082011115610c1057600080fd5b80359060200191846020830284011164010000000083111715610c3257600080fd5b919080806020026020016040519081016040528093929190818152602001838360200280828437600081840152601f19601f82011690508083019250505050505050919291929080359060200190640100000000811115610c9257600080fd5b820183602082011115610ca457600080fd5b80359060200191846001830284011164010000000083111715610cc657600080fd5b91908080601f016020809104026020016040519081016040528093929190818152602001838380828437600081840152601f19601f8201169050808301925050505050505091929192908035906020019092919080604001906002806020026040519081016040528092919082600260200280828437600081840152601f19601f820116905080830192505050505050919291929080604001906002806020026040519081016040528092919082600260200280828437600081840152601f19601f820116905080830192505050505050919291929080359060200190640100000000811115610db557600080fd5b820183602082011115610dc757600080fd5b80359060200191846001830284011164010000000083111715610de957600080fd5b91908080601f016020809104026020016040519081016040528093929190818152602001838380828437600081840152601f19601f8201169050808301925050505050505091929192905050506122ce565b6040518080602001828103825283818151815260200191508051906020019080838360005b83811015610e7b578082015181840152602081019050610e60565b50505050905090810190601f168015610ea85780820380516001836020036101000a031916815260200191505b509250505060405180910390f35b610f14600480360360c0811015610ecc57600080fd5b81019080803590602001909291908035906020019092919080359060200190929190803590602001909291908035906020019092919080359060200190929190505050612747565b60405180848152602001838152602001828152602001935050505060405180910390f35b60008083600060028110610f4857fe5b60200201511480610f8a57507ffffffffffffffffffffffffffffffffebaaedce6af48a03bbfd25e8cd036414183600060028110610f8257fe5b602002015110155b80610fa65750600083600160028110610f9f57fe5b6020020151145b80610fe157507f7fffffffffffffffffffffffffffffff5d576e7357a4501ddfe92f46681b20a083600160028110610fda57fe5b6020020151115b15610fef576000905061128a565b61101b82600060028110610fff57fe5b60200201518360016002811061101157fe5b602002015161131c565b611028576000905061128a565b600080600080600061106b8860016002811061104057fe5b60200201517ffffffffffffffffffffffffffffffffebaaedce6af48a03bbfd25e8cd03641416128dd565b90506110e57f79be667ef9dcbbac55a06295ce870b07029bfcdb2dce28d959f2815b16f817987f483ada7726a3c4655da4fbfc0e1108a8fd17b448a68554199c47d08ffb10d4b87ffffffffffffffffffffffffffffffffebaaedce6af48a03bbfd25e8cd0364141806110da57fe5b848d60001c09611771565b8094508196505050611155876000600281106110fd57fe5b60200201518860016002811061110f57fe5b60200201517ffffffffffffffffffffffffffffffffebaaedce6af48a03bbfd25e8cd03641418061113c57fe5b848c60006002811061114a57fe5b602002015109611771565b8093508195505050611165612d9c565b6111718685878661173c565b905060008160026003811061118257fe5b6020020151141561119c576000965050505050505061128a565b60006111d9826002600381106111ae57fe5b60200201517ffffffffffffffffffffffffffffffffffffffffffffffffffffffffefffffc2f6128dd565b90507ffffffffffffffffffffffffffffffffffffffffffffffffffffffffefffffc2f8061120357fe5b7ffffffffffffffffffffffffffffffffffffffffffffffffffffffffefffffc2f8061122b57fe5b8283098360006003811061123b57fe5b60200201510990508960006002811061125057fe5b60200201517ffffffffffffffffffffffffffffffffebaaedce6af48a03bbfd25e8cd0364141828161127e57fe5b06149750505050505050505b9392505050565b60008060006112a2858560016119a0565b8093508196508297505050506112b98585836116a8565b92509250509250929050565b6000806113137f79be667ef9dcbbac55a06295ce870b07029bfcdb2dce28d959f2815b16f817987f483ada7726a3c4655da4fbfc0e1108a8fd17b448a68554199c47d08ffb10d4b885611771565b91509150915091565b6000826000148061134c57507ffffffffffffffffffffffffffffffffffffffffffffffffffffffffefffffc2f83145b806113575750816000145b8061138157507ffffffffffffffffffffffffffffffffffffffffffffffffffffffffefffffc2f82145b1561138f57600090506114b8565b60007ffffffffffffffffffffffffffffffffffffffffffffffffffffffffefffffc2f806113b957fe5b838409905060007ffffffffffffffffffffffffffffffffffffffffffffffffffffffffefffffc2f806113e857fe5b857ffffffffffffffffffffffffffffffffffffffffffffffffffffffffefffffc2f8061141157fe5b87880909905060008014611478577ffffffffffffffffffffffffffffffffffffffffffffffffffffffffefffffc2f8061144757fe5b7ffffffffffffffffffffffffffffffffffffffffffffffffffffffffefffffc2f8061146f57fe5b60008709820890505b60006007146114b0577ffffffffffffffffffffffffffffffffffffffffffffffffffffffffefffffc2f806114a957fe5b6007820890505b808214925050505b92915050565b60008060008060016000925092509250909192565b606060008060006001856001901b0390506060602067ffffffffffffffff811180156114fe57600080fd5b5060405190808252806020026020018201604052801561152d5781602001602082028036833780820191505090505b5090506000805b895181101561159e5789818151811061154957fe5b60200260200101518987901b17955088850194505b878510611593578785039450838587901c1683838151811061157c57fe5b60200260200101818152505060018201915061155e565b806001019050611534565b5081955050505050509392505050565b6000806001905060008060005b85518110156115f6578581815181106115d057fe5b60200260200101519250600583901c6115e88561298d565b1893508060010190506115bb565b506116008361298d565b925060005b855181101561163f5785818151811061161a57fe5b60200260200101519150601f82166116318561298d565b189350806001019050611605565b50829350505050919050565b6000806000859050600085905060006001905060005b8681101561168d576116748484846119a0565b8094508195508296505050508080600101915050611661565b506116998383836116a8565b94509450505050935093915050565b60008060006116d7847ffffffffffffffffffffffffffffffffffffffffffffffffffffffffefffffc2f6128dd565b90507ffffffffffffffffffffffffffffffffffffffffffffffffffffffffefffffc2f8061170157fe5b81870992507ffffffffffffffffffffffffffffffffffffffffffffffffffffffffefffffc2f8061172e57fe5b818609915050935093915050565b611744612d9c565b60008061175387878787611e29565b80925081935050506117658282611873565b92505050949350505050565b600080600083141561178e57611785611968565b9150915061186b565b60018314156117a25784849150915061186b565b60028314156117be576117b58585611291565b9150915061186b565b600085905060008590506000600190506000600190508895508794506000600288816117e657fe5b0614156117f557600094508495505b600187901c96505b6000871115611857576118118484846119a0565b80945081955082965050505060016002888161182957fe5b06141561184b5761183e848484898986612747565b8093508197508298505050505b600187901c96506117fd565b6118628686836116a8565b95509550505050505b935093915050565b61187b612d9c565b7ffffffffffffffffffffffffffffffffffffffffffffffffffffffffefffffc2f806118a357fe5b6001600008816002600381106118b557fe5b6020020181815250507ffffffffffffffffffffffffffffffffffffffffffffffffffffffffefffffc2f806118e657fe5b816002600381106118f357fe5b602002015184098160006003811061190757fe5b6020020181815250507ffffffffffffffffffffffffffffffffffffffffffffffffffffffffefffffc2f8061193857fe5b8160026003811061194557fe5b602002015183098160016003811061195957fe5b60200201818152505092915050565b600080600080915091509091565b600080831480156119875750600082145b15611995576001905061199a565b600090505b92915050565b60008060008060008060006119b58a8a611976565b156119d1576119c26114be565b96509650965050505050611e20565b7ffffffffffffffffffffffffffffffffffffffffffffffffffffffffefffffc2f806119f957fe5b888a0992507ffffffffffffffffffffffffffffffffffffffffffffffffffffffffefffffc2f80611a2657fe5b6002840992507ffffffffffffffffffffffffffffffffffffffffffffffffffffffffefffffc2f80611a5457fe5b8a840991507ffffffffffffffffffffffffffffffffffffffffffffffffffffffffefffffc2f80611a8157fe5b89830991507ffffffffffffffffffffffffffffffffffffffffffffffffffffffffefffffc2f80611aae57fe5b6002830991507ffffffffffffffffffffffffffffffffffffffffffffffffffffffffefffffc2f80611adc57fe5b8a8b0999507ffffffffffffffffffffffffffffffffffffffffffffffffffffffffefffffc2f80611b0957fe5b60038b0993507ffffffffffffffffffffffffffffffffffffffffffffffffffffffffefffffc2f80611b3757fe5b88890997507ffffffffffffffffffffffffffffffffffffffffffffffffffffffffefffffc2f80611b6457fe5b6000890997507ffffffffffffffffffffffffffffffffffffffffffffffffffffffffefffffc2f80611b9257fe5b88850893507ffffffffffffffffffffffffffffffffffffffffffffffffffffffffefffffc2f80611bbf57fe5b84850990507ffffffffffffffffffffffffffffffffffffffffffffffffffffffffefffffc2f80611bec57fe5b8260020999507ffffffffffffffffffffffffffffffffffffffffffffffffffffffffefffffc2f80611c1a57fe5b8a7ffffffffffffffffffffffffffffffffffffffffffffffffffffffffefffffc2f03820890507ffffffffffffffffffffffffffffffffffffffffffffffffffffffffefffffc2f80611c6957fe5b817ffffffffffffffffffffffffffffffffffffffffffffffffffffffffefffffc2f03830899507ffffffffffffffffffffffffffffffffffffffffffffffffffffffffefffffc2f80611cb857fe5b8a850999507ffffffffffffffffffffffffffffffffffffffffffffffffffffffffefffffc2f80611ce557fe5b838a0998507ffffffffffffffffffffffffffffffffffffffffffffffffffffffffefffffc2f80611d1257fe5b898a0998507ffffffffffffffffffffffffffffffffffffffffffffffffffffffffefffffc2f80611d3f57fe5b8960020998507ffffffffffffffffffffffffffffffffffffffffffffffffffffffffefffffc2f80611d6d57fe5b897ffffffffffffffffffffffffffffffffffffffffffffffffffffffffefffffc2f038b0895507ffffffffffffffffffffffffffffffffffffffffffffffffffffffffefffffc2f80611dbc57fe5b81840996507ffffffffffffffffffffffffffffffffffffffffffffffffffffffffefffffc2f80611de957fe5b83840994507ffffffffffffffffffffffffffffffffffffffffffffffffffffffffefffffc2f80611e1657fe5b8386099450505050505b93509350939050565b6000806000611e3e8787600188886001612747565b809350819850829950505050611e558787836116a8565b925092505094509492505050565b60606000611e70846115ae565b905060606040518060400160405280600181526020017f31000000000000000000000000000000000000000000000000000000000000008152509050606086826040516020018083805190602001908083835b60208310611ee65780518252602082019150602081019050602083039250611ec3565b6001836020036101000a03801982511681845116808217855250505050505090500182805190602001908083835b60208310611f375780518252602082019150602081019050602083039250611f14565b6001836020036101000a03801982511681845116808217855250505050505090500192505050604051602081830303815290604052905060005b855181101561208d576000868281518110611f8857fe5b6020026020010151905080611f9c8661298d565b189450826040518060400160405280602081526020017f71707a7279397838676632747664773073336a6e35346b686365366d7561376c8152508281518110611fe157fe5b602001015160f81c60f81b6040516020018083805190602001908083835b602083106120225780518252602082019150602081019050602083039250611fff565b6001836020036101000a038019825116818451168082178552505050505050905001827effffffffffffffffffffffffffffffffffffffffffffffffffffffffffffff1916815260010192505050604051602081830303815290604052925050806001019050611f71565b5060005b60068110156120b0576120a38461298d565b9350806001019050612091565b5060018318925060005b60068110156121c2576000601f6005836005030286901c169050826040518060400160405280602081526020017f71707a7279397838676632747664773073336a6e35346b686365366d7561376c815250828151811061211657fe5b602001015160f81c60f81b6040516020018083805190602001908083835b602083106121575780518252602082019150602081019050602083039250612134565b6001836020036101000a038019825116818451168082178552505050505050905001827effffffffffffffffffffffffffffffffffffffffffffffffffffffffffffff19168152600101925050506040516020818303038152906040529250508060010190506120ba565b5060606040518060400160405280600281526020017f582d0000000000000000000000000000000000000000000000000000000000008152509050606081836040516020018083805190602001908083835b602083106122375780518252602082019150602081019050602083039250612214565b6001836020036101000a03801982511681845116808217855250505050505090500182805190602001908083835b602083106122885780518252602082019150602081019050602083039250612265565b6001836020036101000a03801982511681845116808217855250505050505090500192505050604051602081830303815290604052905080955050505050509392505050565b60606000606060006002896040516020018082805190602001908083835b6020831061230f57805182526020820191506020810190506020830392506122ec565b6001836020036101000a0380198251168184511680821785525050505050509050019150506040516020818303038152906040526040518082805190602001908083835b602083106123765780518252602082019150602081019050602083039250612353565b6001836020036101000a038019825116818451168082178552505050505050905001915050602060405180830381855afa1580156123b8573d6000803e3d6000fd5b5050506040513d60208110156123cd57600080fd5b810190808051906020019092919050505090506000600382604051602001808281526020019150506040516020818303038152906040526040518082805190602001908083835b602083106124375780518252602082019150602081019050602083039250612414565b6001836020036101000a038019825116818451168082178552505050505050905001915050602060405180830381855afa158015612479573d6000803e3d6000fd5b5050506040515160601b90506060601467ffffffffffffffff8111801561249f57600080fd5b506040519080825280602002602001820160405280156124ce5781602001602082028036833780820191505090505b50905060005b6014811015612518578281601481106124e957fe5b1a60f81b60f81c60ff168282815181106124ff57fe5b60200260200101818152505080806001019150506124d4565b5060608d90506060612537828f61253286600860056114d3565b611e63565b90508f6040516020018082805190602001908083835b60208310612570578051825260208201915060208101905060208303925061254d565b6001836020036101000a03801982511681845116808217855250505050505090500191505060405160208183030381529060405280519060200120816040516020018082805190602001908083835b602083106125e257805182526020820191506020810190506020830392506125bf565b6001836020036101000a0380198251168184511680821785525050505050509050019150506040516020818303038152906040528051906020012014156126b85761262e8c8c8c610f38565b965060011515871515141561267a576040518060400160405280601381526020017f5369676e6174757265207665726966696564210000000000000000000000000081525095506126b3565b6040518060400160405280601e81526020017f5369676e617475726520766572696669636174696f6e206661696c656421000081525095505b612731565b806040516020018080612dbf6059913960590182805190602001908083835b602083106126fa57805182526020820191506020810190506020830392506126d7565b6001836020036101000a03801982511681845116808217855250505050505090500191505060405160208183030381529060405295505b8597505050505050505098975050505050505050565b600080600080600080600061275c8d8d611976565b1561277357898989965096509650505050506128d1565b61277d8a8a611976565b15612794578c8c8c965096509650505050506128d1565b7ffffffffffffffffffffffffffffffffffffffffffffffffffffffffefffffc2f806127bc57fe5b888d0993507ffffffffffffffffffffffffffffffffffffffffffffffffffffffffefffffc2f806127e957fe5b8b8a0992507ffffffffffffffffffffffffffffffffffffffffffffffffffffffffefffffc2f8061281657fe5b888e0991507ffffffffffffffffffffffffffffffffffffffffffffffffffffffffefffffc2f8061284357fe5b8b8b099050808214156128895782841415612872576128638d8d8d6119a0565b965096509650505050506128d1565b61287a6114be565b965096509650505050506128d1565b6128c07ffffffffffffffffffffffffffffffffffffffffffffffffffffffffefffffc2f806128b457fe5b898d0983838688612a06565b809750819850829950505050505050505b96509650969350505050565b6000808314806128ec57508183145b806128f75750600082145b156129055760009050612987565b8183111561291a5781838161291657fe5b0692505b600080600190506000849050600086905060005b600082146129635781838161293f57fe5b0490508384820286038384840286038095508196508297508398505050505061292e565b600085121561297e5784600003870395505050505050612987565b84955050505050505b92915050565b600080601983901c9050632a1462b36001600483901c1660000316633d4233dd6001600384901c1660000316631ea119fa6001600285901c16600003166326508e6d60018086901c1660000316633b6a57b26001600087901c166000031660056301ffffff8916901b1818181818905080915050919050565b6000806000806000806000807ffffffffffffffffffffffffffffffffffffffffffffffffffffffffefffffc2f80612a3a57fe5b8a7ffffffffffffffffffffffffffffffffffffffffffffffffffffffffefffffc2f038a0890507ffffffffffffffffffffffffffffffffffffffffffffffffffffffffefffffc2f80612a8957fe5b8b7ffffffffffffffffffffffffffffffffffffffffffffffffffffffffefffffc2f038d0894507ffffffffffffffffffffffffffffffffffffffffffffffffffffffffefffffc2f80612ad857fe5b85860993507ffffffffffffffffffffffffffffffffffffffffffffffffffffffffefffffc2f80612b0557fe5b81820991507ffffffffffffffffffffffffffffffffffffffffffffffffffffffffefffffc2f80612b3257fe5b8d830991507ffffffffffffffffffffffffffffffffffffffffffffffffffffffffefffffc2f80612b5f57fe5b8c8c089a507ffffffffffffffffffffffffffffffffffffffffffffffffffffffffefffffc2f80612b8c57fe5b848c099a507ffffffffffffffffffffffffffffffffffffffffffffffffffffffffefffffc2f80612bb957fe5b8b7ffffffffffffffffffffffffffffffffffffffffffffffffffffffffefffffc2f03830891507ffffffffffffffffffffffffffffffffffffffffffffffffffffffffefffffc2f80612c0857fe5b82860997507ffffffffffffffffffffffffffffffffffffffffffffffffffffffffefffffc2f80612c3557fe5b85850992507ffffffffffffffffffffffffffffffffffffffffffffffffffffffffefffffc2f80612c6257fe5b848d099b507ffffffffffffffffffffffffffffffffffffffffffffffffffffffffefffffc2f80612c8f57fe5b827ffffffffffffffffffffffffffffffffffffffffffffffffffffffffefffffc2f038d089b507ffffffffffffffffffffffffffffffffffffffffffffffffffffffffefffffc2f80612cde57fe5b8c820990507ffffffffffffffffffffffffffffffffffffffffffffffffffffffffefffffc2f80612d0b57fe5b838a0998507ffffffffffffffffffffffffffffffffffffffffffffffffffffffffefffffc2f80612d3857fe5b897ffffffffffffffffffffffffffffffffffffffffffffffffffffffffefffffc2f03820896507ffffffffffffffffffffffffffffffffffffffffffffffffffffffffefffffc2f80612d8757fe5b8d840995505050505050955095509592505050565b604051806060016040528060039060208202803683378082019150509050509056fe4661696c65643a2041646472657373657320646f206e6f74206d617463682e204164647265737320666f722074686973207369676e61747572652f6d65737361676520636f6d62696e6174696f6e2073686f756c6420626520a2646970667358221220ac99d09f138aec98fb1b0530bb8b93e75768081fa434bcb201de459a3d804b5564736f6c63430007000033",
  "linkReferences": {},
  "deployedLinkReferences": {}
}